S01700004763634170706C69636174696F6E312E737265635B
S11300000C942A000C9490010C94EA010C943E0286
S11300100C9401030C94D8020C9447000C944700F0
S11300200C9447000C9447000C9447000C94470030
S11300300C9447000C9447000C9447000C94470020
S11300400C9447000C9447000C9447000C94470010
S11300500C94470011241FBECFE5D8E0DEBFCDBF0E
S113006010E0A0E6B0E0ECE2FCE002C005900D92E6
S1130070A83FB107D9F720E0A8EFB0E001C01D9276
S1130080AE3FB207E1F70E941B010C9414060C94D6
S1130090000085BB88B38E7F88BB88B38D7F88BB07
S11300A088B3886088BB89EF90E00197F1F700C0BE
S11300B0000088B3877F88BB89EF90E00197F1F750
S11300C000C0000008958FEF84BB87BB88E30E94C3
S11300D049008EE00E94490081E00E944900089591
S11300E085BB88B3816088BB88B38D7F88BB88B3A8
S11300F0886088BB89EF90E00197F1F700C00000A9
S113010088B3877F88BB89EF90E00197F1F700C03F
S1130110000008950F931F93CF93DF938C01C0E0E9
S1130120D0E007C0F801EC0FFD1F80810E94700031
S11301302196C031D105B4F3DF91CF911F910F9176
S1130140089581E00E944900089580E80E944900D2
S1130150089580EC0E94490008958FEF0E944900A1
S11301600E94A50080E690E00E948A000E94A900F7
S113017081E790E00E948A008CE00E94490088B3E5
S113018018BA08950F931F93CF93DF93CDB7DEB7BB
S113019060970FB6F894DEBF0FBECDBF8C018FEF12
S11301A00E9449000E94A50080E690E00E948A0017
S11301B00E94A90085E090E0801B910B9F938F9390
S11301C082E890E09F938F938E010F5F1F4F1F93E0
S11301D00F930E942A03C8010E948A008CE00E94A7
S11301E0490088B3806F88BB0F900F900F900F90D9
S11301F00F900F9060960FB6F894DEBF0FBECDBF80
S1130200DF91CF911F910F9108958FEF0E944900C4
S11302100E94A50083E990E00E948A000E94A90040
S113022083EA90E00E948A008CE00E94490088B32F
S1130230806F88BB08950E9463000E948C028FEF38
S11302408ABB11BA82BB1BBA87B38B7F87BB81B3CE
S1130250806881BB8BB780648BBF8BB780688BBF92
S11302608BB780628BBF78941092FB001092FA00D7
S1130270809906C081E090E09093FB008093FA009F
S1130280819909C08091FA009091FB0001969093A6
S1130290FB008093FA00849909C08091FA00909140
S11302A0FB0001969093FB008093FA00859909C0A6
S11302B08091FA009091FB0001969093FB0080934B
S11302C0FA00869909C08091FA009091FB0001968A
S11302D09093FB008093FA008091FA009091FB00C8
S11302E08530910549F40E9405018BB38E7F8BBB49
S11302F08BB382608BBBB8CF009749F40E94AD00EA
S11303008BB38D7F8BBB8BB381608BBBADCF0E94D6
S1130310C2008BB38D7F8BBB8BB381608BBBA4CFAF
S11303201F920F920FB60F9211242F933F934F9366
S11303305F936F937F938F939F93AF93BF93EF9349
S1130340FF938FEF0E9449000E94A50083EB90E089
S11303500E948A000E94A90084EC90E00E948A0016
S11303608CE00E94490084EB0E94A5028BB382605A
S11303708BBB8BB38E7F8BBB22E330E014C08BB37B
S113038084608BBB8FE493EC0197F1F700C000000D
S11303908BB38B7F8BBB8FE493EC0197F1F700C099
S11303A00000215031092115310549F780E00E94F0
S11303B0A502FF91EF91BF91AF919F918F917F9192
S11303C06F915F914F913F912F910F900FBE0F90BE
S11303D01F9018951F920F920FB60F9211242F930E
S11303E03F934F935F936F937F938F939F93AF93B9
S11303F0BF93EF93FF938091FA009091FB000597D0
S113040061F10E94A1008FEF0E9449000E94A500A3
S113041080E690E00E948A000E94A90085ED90E0A9
S11304200E948A008CE00E94490084EB0E94A5028D
S11304302FE784E89EE1215080409040E1F700C01E
S1130440000080E00E94A5022FE784E89EE121508D
S113045080409040E1F700C00000FF91EF91BF9110
S1130460AF919F918F917F916F915F914F913F9148
S11304702F910F900FBE0F901F9018951F920F92FF
S11304800FB60F9211242F933F934F935F936F9363
S11304907F938F939F93AF93BF93EF93FF930E94A8
S11304A0A1008FEF0E9449000E94A50086EE90E013
S11304B00E948A000E94A90085ED90E00E948A00B3
S11304C08CE00E94490084EB0E94A5022FE784E897
S11304D09EE1215080409040E1F700C0000080E0A0
S11304E00E94A5022FE784E89EE1215080409040BD
S11304F0E1F700C00000FF91EF91BF91AF919F9190
S11305008F917F916F915F914F913F912F910F90B8
S11305100FBE0F901F901895CF93DF9300D01F92BA
S1130520CDB7DEB780EC898385E08A8380E38B8353
S1130530CE0101960E94B10281B3806881BB0F9005
S11305400F900F90DF91CF910895811104C08AEF2D
S11305500E94D6020895843B19F486EE0E94D602C6
S11305600895FC01789414BC95B58081892B85BDD0
S113057095B58181892B85BD95B58281892B85BDF2
S11305808081882361F0803C81F48BB384608BBBD1
S113059089B7806889BF89B78F7B89BF089589B778
S11305A0806489BF89B78F7789BF089583BD089513
S11305B01F920F920FB60F9211242F933F934F93D4
S11305C05F936F937F938F939F93AF93BF93EF93B7
S11305D0FF93E091F800F091F900309709F0099544
S11305E0FF91EF91BF91AF919F918F917F916F9107
S11305F05F914F913F912F910F900FBE0F901F90DD
S113060018951F920F920FB60F9211242F933F93B8
S11306104F935F936F937F938F939F93AF93BF9306
S1130620EF93FF93E091F800F091F900309709F00F
S11306300995FF91EF91BF91AF919F918F917F9118
S11306406F915F914F913F912F910F900FBE0F903B
S11306501F901895AEE0B0E0E0E3F3E00C94EB05F6
S11306600D891E8986E08C831A8309838FEF9FE7A7
S11306709E838D83AE01475E5F4F6F89788DCE0177
S113068001960E944C03EF81F885E00FF11F108260
S11306902E96E4E00C940706ABE0B0E0E2E5F3E06C
S11306A00C94DD056C017B018A01FC011782168222
S11306B0838181FFCCC1CE0101963C01F601938177
S11306C0F70193FD859193FF81917F01882309F4BC
S11306D0BAC1853239F493FD859193FF81917F01ED
S11306E0853229F4B60190E00E944305E7CF912CAE
S11306F0212C312CFFE1F315D8F08B3279F038F44A
S1130700803279F08332A1F4232D20611DC08D3213
S113071061F0803369F4232D216016C0832D82603B
S1130720382EE32DE4603E2E2AC0F32DF8601DC060
S113073037FC2DC020ED280F2A3040F08E32B9F45A
S113074036FC81C1232D2064322E19C036FE06C02A
S11307508AE0989E200D1124922E11C0EAE02E9E6C
S1130760200D1124222EF32DF0623F2E08C08C366A
S113077021F4832D8068382E02C0883641F4F701B5
S113078093FD859193FF81917F018111B3CF982FC0
S11307909F7D9554933028F40C5F1F4F9FE39983FA
S11307A00DC0833631F0833771F0833509F059C0B9
S11307B021C0F801808189830E5F1F4F88248394B0
S11307C0912C530113C02801F2E04F0E511CF80183
S11307D0A080B18036FE03C0692D70E002C06FEFC7
S11307E07FEFC5010E9438054C018201F32DFF778C
S11307F03F2E16C0280122E0420E511CF801A080B1
S1130800B18036FE03C0692D70E002C06FEF7FEF48
S1130810C5010E942D054C01F32DF0683F2E820185
S113082033FC1BC0822D90E088169906B0F4B60103
S113083080E290E00E9443052A94F4CFF50137FC4E
S1130840859137FE81915F01B60190E00E944305D6
S113085021102A9421E0821A91088114910471F7DD
S1130860E8C0843611F0893641F5F80137FE07C037
S113087060817181828193810C5F1F4F08C0608108
S11308807181072E000C880B990B0E5F1F4FF32DFF
S1130890FF763F2E97FF09C09095809570956195DE
S11308A07F4F8F4F9F4FF0683F2E2AE030E0A30127
S11308B00E947F05882E861845C0853731F4232D84
S11308C02F7EB22E2AE030E025C0932D997FB92ED9
S11308D08F36C1F018F4883579F0B5C0803719F037
S11308E0883721F0B0C0E92FE061BE2EB4FE0DC000
S11308F0FB2DF460BF2E09C034FE0AC0292F2660E8
S1130900B22E06C028E030E005C020E130E002C08D
S113091020E132E0F801B7FE07C060817181828175
S113092093810C5F1F4F06C06081718180E090E06D
S11309300E5F1F4FA3010E947F05882E8618FB2D92
S1130940FF773F2E36FE0DC0232D2E7FA22E891455
S113095058F434FE0BC032FC09C0832D8E7EA82EC1
S113096005C0B82CA32C03C0B82C01C0B92CA4FE1C
S11309700FC0FE01E80DF11D8081803321F49A2D12
S1130980997EA92E09C0A2FE06C0B394B39404C0F4
S11309908A2D867809F0B394A3FC11C0A0FE06C08A
S11309A0B21488F4280C922C9B180EC0B21460F474
S11309B0B60180E290E00E944305B394F7CFB214ED
S11309C018F42B1802C0982C212CA4FE10C0B601D8
S11309D080E390E00E944305A2FE17C0A1FC03C07F
S11309E088E790E002C088E590E0B6010CC08A2D4B
S11309F0867859F0A1FE02C08BE201C080E2A7FC18
S1130A008DE2B60190E00E944305891438F4B601E2
S1130A1080E390E00E9443059A94F7CF8A94F3010F
S1130A20E80DF11D8081B60190E00E94430581101C
S1130A30F5CF222009F442CEB60180E290E00E9474
S1130A4043052A94F6CFF6018681978102C08FEF81
S1130A509FEF2B96E2E10C94F905FC01059061509F
S1130A6070400110D8F7809590958E0F9F1F0895C0
S1130A70FC016150704001900110D8F78095909569
S1130A808E0F9F1F08950F931F93CF93DF93FB0146
S1130A90238121FD03C08FEF9FEF2CC022FF16C0DE
S1130AA046815781248135814217530744F4A0813C
S1130AB0B1819D012F5F3F4F318320838C93268129
S1130AC037812F5F3F4F3783268314C08B01EC019E
S1130AD0FB010084F185E02D0995892BE1F6D8010D
S1130AE016968D919C911797019617969C938E93C9
S1130AF01697CE01DF91CF911F910F910895FA01BE
S1130B00AA27283051F1203181F1E8946F936E7F48
S1130B106E5F7F4F8F4F9F4FAF4FB1E03ED0B4E039
S1130B203CD0670F781F891F9A1FA11D680F791F7A
S1130B308A1F911DA11D6A0F711D811D911DA11D8B
S1130B4020D009F468943F912AE0269F112430199B
S1130B50305D3193DEF6CF010895462F4770405D36
S1130B604193B3E00FD0C9F7F6CF462F4F70405DE5
S1130B704A3318F0495D31FD4052419302D0A9F740
S1130B80EACFB4E0A6959795879577956795BA953A
S1130B90C9F700976105710508959B01AC010A2E00
S1130BA006945795479537952795BA95C9F7620FD7
S1130BB0731F841F951FA01D08952F923F924F927B
S1130BC05F926F927F928F929F92AF92BF92CF92D9
S1130BD0DF92EF92FF920F931F93CF93DF93CDB7E2
S1130BE0DEB7CA1BDB0B0FB6F894DEBF0FBECDBF5A
S1130BF009942A88398848885F846E847D848C842B
S1130C009B84AA84B984C884DF80EE80FD800C8133
S1130C101B81AA81B981CE0FD11D0FB6F894DEBF16
S10F0C200FBECDBFED010895F894FFCF86
S1130C2C2020202057656C636F6D652120202020C7
S1130C3C002047617261676520497320456D7074AB
S1130C4C790020256920506C6163657320456D70B3
S1130C5C7479002047617261676520497320467579
S1130C6C6C6C0020202020202020202020202020FC
S1130C7C2020002020454D455247454E4359212103
S1130C8C21202000204669726520496E204761723C
S1130C9C616765200047617465204973204F706556
S1130CAC6E696E672E00202020476F6F6420427996
S10B0CBC652121202020000025
S9030000FC
